S011000054696E79426C696E6B2E737265637F
S113000012C01FC01EC01DC01CC01BC01AC019C016
S113001018C017C016C015C014C013C012C011C038
S113002010C00FC00EC011241FBECFEDCDBF20E005
S1130030A0E6B0E001C01D92A136B207E1F70ED0F0
S11300401FC0DECF12BE82E486BF85E080BF89B7C1
S1130050816089BF78941092600008958FEF81BB0E
S1130060F1DF82B3816082BB809160008639C8F37E
S113007092B382E0892782BB12BE10926000F1CF56
S1070080F894FFCF1E
S9030000FC
